:100000000C94CE000C94FF000C94FF000C94FF00A5
:100010000C94FF000C94FF000C94FF000C94FF0064
:100020000C94FF000C94FF000C94FF000C94FF0054
:100030000C94FF000C94FF000C94FF000C94FF0044
:100040000C94FF000C94FF000C94FF000C94FF0034
:100050000C94FF000C94FF000C94FF000C945E10B5
:100060000C94FF000C94460C0C94360D0C94FF007D
:100070000C94FF000C94FF000C94FF000C94FF0004
:100080000C94FF000C94FF000C94FF000C94FF00F4
:100090000C947A0C0C94750D0C94FF000C94FF00DA
:1000A0000C94FF000C94FF000C94FF000C94FF00D4
:1000B0000C94FF000C94FF000C94FF000C94FF00C4
:1000C0000C94FF000C94FF000C94FF000C94AE0CF9
:1000D0000C94B40D0C94FF000C94E20C0C94F30DF2
:1000E0000C94FF000C94920B0C94DE0B0C94E90B17
:1000F0000C9474010C949B030C94BF080C94380E60
:100100000C9454050C9416070C94A20B0C9401014A
:100110000C9489010C944E050C94D4060C946B013C
:100120000C9442040C947D010C9480010C94BE0B41
:100130000C9489040C946E010C9425010C946711A5
:100140000C947A010C94A1030C94E30A0C9483019F
:100150000C9428080C94A5020C949A0F0C94700B24
:100160000C9477010C9486010C9461110C94830417
:100170000C94B50E0C947C020C9471010C94480400
:100180000C948E010C94DA060C9471030C94C5083F
:100190000C94150D0C949401E30AB50E11241FBEA6
:1001A000CFEFD1E2DEBFCDBF00E00CBF13E0A0E097
:1001B000B2E0ECEDF6E200E00BBF02C007900D925A
:1001C000A63BB107D9F72BE0A6EBB3E001C01D9227
:1001D000AB32B207E1F710E0CEECD0E000E006C0B1
:1001E00021970109802FFE010E944C13CC3CD107BE
:1001F00080E00807A9F70E94870F0C946C130C94F9
:100200000000DC01FB0112968C91129780831396FB
:100210008C911397818314968C91149782831596F1
:100220008C911597838316968C91169784831796D5
:100230008C911797858318968C91189786831996B9
:100240008C91878388E090E00895FC01DB014C915C
:1002500050E060E070E042835383648375831196BD
:100260008C911197582B4283538364837583129624
:100270008C911297682B4283538364837583139602
:100280008C911397782B42835383648375831496E0
:100290004C91149750E060E070E04683578360878C
:1002A000718715968C911597582B468357836087D5
:1002B000718716968C911697682B468357836087B3
:1002C000718717968C91782B468357836087718747
:1002D00088E090E0089583E192E0089581E292E061
:1002E000089582E492E008958BE592E008958CE70A
:1002F00092E008958FE892E0089583E493E00895F2
:1003000080EB92E0089581ED92E0089581EE92E015
:100310000895FC01EA57FB4F80810895A5E0B0E005
:10032000E4E9F1E00C9409138C016B01643671056A
:100330003CF0FC01EA57FB4F8081882309F478C028
:10034000DA01ED91FC910190F081E02DB801615E40
:100350007D4FCA0119957801B8EEEB1ABDEFFB0A83
:100360002FEFF70120832EEF319620833196808383
:10037000319690833196292F280F2095208331962E
:10038000C082D801A25EBD4FDC9245E050E020E083
:1003900030E0BC016A5F7F4F6417750734F0A191AC
:1003A0002A0F311D4F5F5F4FF7CF6C01F8E0CF0E82
:1003B000D11C800F911FFC01E15EFD4F2095208331
:1003C00021E0C21622E0D206CCF45701C5018E19F5
:1003D0009F098C159D0584F4D80112968D919C91EE
:1003E0001397F50161915F01DC01ED91FC910190A2
:1003F000F081E02D1995EACFC6011CC08BE793E090
:100400009A83898383E08B8382E093E09D838C834E
:10041000D801ED91FC910190F081E02DAE014F5F8C
:100420005F4F67E070E0C80119958FEF9FEF02C042
:1004300080E090E02596EAE00C9425134091C803F3
:100440005091C9036091CA037091CB038091C60398
:100450009091C7030E94320E1092410810924008FA
:1004600010924308109242081092470810924608D2
:100470001092450810924408ECEDF7E080E090E01F
:1004800021913191232BB1F4FC01EE0FFF1FE452B7
:10049000F84F26EB33E03183208383589F4F9093AE
:1004A000BB038093BA0384EC93E09093BD038093E5
:1004B000BC03089501968931910511F70895CF92F3
:1004C000DF92EF92FF9220E030E06A017B01022E82
:1004D00004C0F694E794D794C7940A94D2F7FC0129
:1004E000C192CF01285F3F4F2032310571F7FF9055
:1004F000EF90DF90CF900895EF92FF920F931F93AC
:10050000CF93DF937C018B01DC011296ED91FC917E
:100510001397EF0109900020E9F72197CE1BDF0B1D
:10052000AE0160E070E0C8010E945F02F7016281E5
:100530007381AE01C80104960E946313CE01049634
:10054000CDB7DEB7E6E00C9429134F925F926F921D
:100550007F92AF92BF92CF92DF92EF92FF920F9372
:100560001F93CF93DF93EC017B018A81FB01808392
:100570008B8181838C8182838D818383DB011796BC
:1005800040E050E0BA01E4E0F0E04A805B806C803B
:100590007D808F010C5F1F4F44155505660577055B
:1005A000C0F48A859B85E80FF91F3497D08021819C
:1005B00092818381FD013397D082319620833196D9
:1005C00090838C93F8014F5F5F4F6F4F7F4F14966E
:1005D000DCCFEE0DFF1D8C8580838D8581838E851C
:1005E00082838F85838380E090E040E050E0BA0111
:1005F0004C845D846E847F84F701E00FF11F0C5FF3
:100600001F4F4415550566057705B8F4AC89BD89BB
:10061000A80FB91FCC901196DC90119712963C91BF
:10062000129713962C91C082D182328323834F5F1D
:100630005F4F6F4F7F4F0496DBCF8E8980838F890A
:100640008183888D8283898D8383412C512C320153
:100650008E899F89A88DB98D481659066A067B0632
:1006600080F55201AA0CBB1CEC8DFD8DEA0DFB1D23
:10067000A081B181FD0101900020E9F731976F0160
:10068000CA1ADB0AA60160E070E0C701800F911F63
:100690000E945F020C5F1F4F8C8D9D8DFC01EA0D47
:1006A000FB1D60817181A601C701800F911F0E940F
:1006B00063130C0D1D1DFFEF4F1A5F0A6F0A7F0AAF
:1006C000C7CFC801DF91CF911F910F91FF90EF909D
:1006D000DF90CF90BF90AF907F906F905F904F90E2
:1006E0000895EF92FF920F931F93CF93DF938C01A6
:1006F0007B01EC018A81FB018193AB81BC81ED011F
:1007000009900020E9F72197CA1BDB0BAE0160E0DE
:1007100070E0CF010E945F02F80163817481AE0135
:10072000C70105960E946313CE010596CDB7DEB7CB
:10073000E6E00C942913A0E0B0E0E1EAF3E00C94C9
:100740000B136C01EB01FC01828188838381898317
:10075000A481B581FD0101900020E9F731978F0157
:100760000A1B1B0BA80160E070E0CE0102960E94FC
:100770005F02F60164817581A801CE0106960E9490
:100780006313C8010696F601A681B781FD010190A9
:100790000020E9F731977F01EA1AFB0AA70160E020
:1007A00070E08C0F9D1F0E945F02065F1F4FF601D5
:1007B00066817781A701CE01800F911F0E9463138C
:1007C0000E0D1F1DF601A085B185FD0101900020D1
:1007D000E9F731977F01EA1AFB0AA70160E070E0B0
:1007E000CE01800F911F0E945F020C5F1F4FF60128
:1007F00060857185A701CE01800F911F0E94631350
:10080000C8018E0D9F1DF6016285438534852585BF
:10081000C80FD91F688349833A832B830496CDB7C9
:10082000DEB7E8E00C942713CF92DF92EF92FF92AD
:10083000FC011082118212821382DB0120E030E081
:100840004D9150E0022E02C0440F551F0A94E2F76A
:10085000052E000C660B770BC080D180E280F38000
:100860004C295D296E297F294083518362837383DC
:10087000285F3F4F2032310519F7FF90EF90DF904E
:10088000CF900895A4E0B0E0E8E4F4E00C940713FE
:100890007C018B01FB018191BF01F7018283CE01B5
:1008A00001960E94140489819A81AB81BC814C011C
:1008B0005D01F5E08F0E911CA11CB11C680125E0C3
:1008C000C20ED11CA601401B510B60E070E0481520
:1008D00059056A057B0548F4F60141916F019F01B6
:1008E00022503109F9014083EDCFF801E80FF91FDB
:1008F00014820C5F1F4FF70114830383059624961F
:10090000ECE00C942313ACE0B0E0E9E8F4E00C94E4
:1009100003137C018B01DB018C9190E0F701938341
:10092000828311962C91922B938382836E5F7F4FEB
:10093000CE0109960E94140489849A84AB84BC84F5
:10094000B501A4014A5F5F4F6F4F7F4FF8013696A4
:10095000CF01801B910BA0E0B0E084179507A6079C
:10096000B70728F48191DF0112978C93F1CFF8013A
:10097000E80DF91D1582C8010596D70115969C93BF
:100980008E931497B4016A5F7F4F600F711FCE0181
:1009900005960E941404BAE08B0E911C4D815E8175
:1009A0006F8178852401092C000C66087708440EB5
:1009B000551E661E771EF801E80DF91DCF01801B3C
:1009C000910BA0E0B0E084159505A605B70528F4C5
:1009D0008191DF0112978C93F1CF6401C40ED51E73
:1009E000B8016C0D7D1DFB0131971082C401019788
:1009F000800F911FF70197838683CE0101960E9495
:100A00001404A6014C5F5F4F49805A806B807C8044
:100A10004A01052E000CAA08BB08840C951CA61CD4
:100A2000B71CF801E40FF51F9F01201B310BC90112
:100A3000A0E0B0E088159905AA05BB0528F48191CE
:100A4000DF0112978C93F0CFCA01840D951DF80138
:100A5000E80FF91FDF0111971C929A01215031090B
:100A6000020F131FD70119961C930E93189721811B
:100A7000428150E060E070E0BA0155274427522BD4
:100A80002081422B2381722BF70142875387648791
:100A9000758704962C96E0E10C941F13A8E0B0E053
:100AA000E4E5F5E00C9401138C015B01DB018C9112
:100AB00011969C9111971296CC901297D12CE12C03
:100AC000F12C7601DD24CC24D92AC82A13968C91E6
:100AD000F82AF80182819381A481B5818C159D0546
:100AE000AE05BF0570F4B601660F771F660F771F5E
:100AF000828593850E94940FD8011B969C938E93B8
:100B00001A97F801C282D382E482F582D501179642
:100B1000C12CD12C7601F4E08F2E912C98012A5F04
:100B20003F4FF8014281538164817581C40104966D
:100B3000C416D506E606F70680F54C9150E060E055
:100B400070E0742F662755274427FD013397E08115
:100B50004E2BFD013297E0815E2BFD013197E08144
:100B60006E2BF80146835783608771874C01089785
:100B700042855385840F951FF9014081518162811F
:100B80007381FC014083518362837383FFEFCF1A2B
:100B9000DF0AEF0AFF0A1496C4CFF401EA0DFB1D29
:100BA00020813181C280D12CE12CF12C7601DD2411
:100BB000CC24D32AC22A2381F22A4C01F80184854D
:100BC0009585A685B7858C159D05AE05BF0570F486
:100BD000B601660F771F660F771F848995890E947B
:100BE000940FD80155969C938E935497F801C48620
:100BF000D586E686F78620E030E0C12CD12C760140
:100C0000D8015096F8014485558566857785F501AC
:100C1000E80DF91DC4010496C416D506E606F706CC
:100C200048F59180428150E060E070E0BA015527BC
:100C30004427592990804929E3817E2BF801408B74
:100C4000518B628B738B4C0184899589FC01E20F77
:100C5000F31F4D915D916D917C911397408351836A
:100C600062837383FFEFCF1ADF0AEF0AFF0A2C5F5C
:100C70003F4FC8CF20813181C280D12CE12CF12C93
:100C80007601DD24CC24D32AC22A2381F22A4C0106
:100C9000F80186899789A08DB18D8C159D05AE05CB
:100CA000BF0560F4B601660F771F848D958D0E9495
:100CB000940FD8015D969C938E935C97F801C68A39
:100CC000D78AE08EF18E412C512C32011801FAE1C5
:100CD0002F0E311CF80186899789A08DB18D481699
:100CE00059066A067B0608F05AC0B501680D791DE1
:100CF000CE0101960E94140494012C5F3F4FC980DD
:100D0000DA80EB80FC80C901032E000CAA0BBB0B20
:100D1000AC01BD014C0D5D1D6E1D7F1D4D835E83BD
:100D20006F837887F501E20FF31FAF014A195B0962
:100D3000CA01A0E0B0E04D815E816F8178858417A3
:100D40009507A607B70728F44191DF0112974C9346
:100D5000ECCFC9018C0D9D1DF501E80FF91F3197EE
:100D60001082215031092A0D3B1DD8015B963C931E
:100D70002E935A974C01C201880F991F5C96ED91F2
:100D8000FC915D97E80FF91FD1018D919C919183A2
:100D90008083BFEF4B1A5B0A6B0A7B0A9BCFC401AF
:100DA0002896E2E10C941D13A4E0B0E0EAEDF6E031
:100DB0000C9407137C018B01CE0101960E94140450
:100DC00089819A81AB81BC814C015D0124E0820E56
:100DD000911CA11CB11C6801E4E0CE0ED11CA6013F
:100DE000401B510B60E070E0481559056A057B0512
:100DF00048F4F60141916F019F0122503109F90138
:100E00004083EDCFF801E80FF91F13820D5F1F4FEC
:100E1000F7011383028304962496ECE00C942313C9
:100E2000AAE0B0E0E6E1F7E00C940F138C0183E652
:100E300093E09A8389831B821C821D821E821F82FB
:100E4000188619861A86D801ED91FC910190F081DF
:100E5000E02DAE014F5F5F4F6AE070E0C801199569
:100E60000E94A810F80160877187828793872A966D
:100E7000E4E00C942B134F925F926F927F92AF92AB
:100E8000BF92CF92DF92EF92FF920F931F93CF9377
:100E9000DF93CDB7DEB72E970FB6F894DEBF0FBE47
:100EA000CDBF8C018FE693E09A8389831C821B82DD
:100EB0008AE393E09E838D8398878F839A878987BF
:100EC0001B861C861D861E86680188EEC81A8BEF5D
:100ED000D80A7801A6EBEA1AABEFFA0A412C92E0A5
:100EE000592E612C712CD601ED91FC913097B9F1FE
:100EF000848195819C838B83808191819E838D8366
:100F000082819381DC01ED91FC910480F581E02DDB
:100F1000199598878F83D601ED91FC9182819381F9
:100F2000DC01ED91FC910680F781E02D19959A87FF
:100F300089874B865C866D867E86F80180819181EB
:100F4000F601A081B18118966D917C911997DC0111
:100F5000ED91FC91AE014F5F5F4FC8011995B2E072
:100F6000CB0ED11CCE14DF0409F0BDCF6801E4E83C
:100F7000CE1AEBEFDE0A412C82E0582E612C712C48
:100F8000F701A081B1811097E1F112968D919C91AA
:100F900013979C838B8314968D919C9115979E83B8
:100FA0008D83ED91FC9111970480F581E02DCD01A9
:100FB000199598878F83D7018D919C91DC01ED91D4
:100FC000FC910680F781E02D19959A8789874B86D9
:100FD0005C866D867E86D801ED91FC91A080B18003
:100FE000F70180819181DC01ED91FC910280F38118
:100FF000E02D1995AE014F5F5F4FBC01C801F501AF
:101000001995F2E0EF0EF11CEC14FD0409F0B8CFD5
:10101000F801EA57FB4F81E080832E960FB6F894D3
:10102000DEBF0FBECDBFDF91CF911F910F91FF901B
:10103000EF90DF90CF90BF90AF907F906F905F90D8
:101040004F900895AAE0B0E0E8E2F8E00C940713AE
:101050008C015B0183E693E09A8389831B821C8267
:101060001D821E821F82188619861A860E94A81069
:10107000F801C084D184E284F3849B01AC012C1973
:101080003D094E095F0969017A01B501CE0101965A
:101090000E94250188EE882E83E0982EA12CB12C89
:1010A000C701B601A50194010E94D412CB80DC8057
:1010B000ED80FE80C20ED31EE41EF51ECB82DC82C4
:1010C000ED82FE829B01AC0160E472E48FE090E06F
:1010D0000E94B012CF80D884E984FA84DC01CB016D
:1010E0008C0D9D1DAE1DBF1D8F839887A987BA8764
:1010F0000E94A810CB80DC80ED80FE8031E0C31A16
:10110000D108E108F108A50194010E94D412C21A85
:10111000D30AE40AF50AF801C486D586E686F7867E
:10112000CF80D884E984FA84F6E3DF1AF5E6EF0A83
:10113000F4ECFF0A9B01AC0160E472E48FE090E004
:101140000E94B012C61AD70AE80AF90AF801C08A42
:10115000D18AE28AF38AB801605F7F4FC8010C969A
:101160000E946A0B0E94A810F801E557FB4F6083AC
:101170007183828393832A96ECE00C942313A0E17D
:10118000B0E0E5ECF8E00C940113988B8F870E9497
:10119000A8104B015C012F85388925573B4F3E83B2
:1011A0002D83F90180819181A281B381A5019401F0
:1011B000281B390B4A0B5B0BDA01C901893F9A42A4
:1011C000A105B10528F0EF85F889EA57FB4F108299
:1011D0000F85188904581B4FD8018D919C91892B3C
:1011E00081F0EF85F889E157FB4F80819181A281E1
:1011F000B38188159905AA05BB0518F4F801118279
:1012000010826F847888FCE76F1AFBEF7F0A2F85C6
:10121000388920583B4F3A832983CF84D88838E1D6
:10122000C30ED11C4F8558894A575B4F58874F834F
:101230002F8538892C563B4F3A8729874F85588907
:101240004D565B4F5C874B87EF84F88852E8E51A70
:101250005BEFF50A2F8538892E573B4F3C832B8354
:101260004F85588941575B4F5E874D871401250193
:1012700054E1250E311C411C511CEF85F8898489ED
:101280009589A689B789892B8A2B8B2B89F4AF8501
:10129000B88912968D919C911397DC01ED91FC9188
:1012A0000680F781E02D19959C0197FF15C037C185
:1012B0000E94A810DC01CB0188199909AA09BB0971
:1012C000EF85F88924893589468957892817390790
:1012D0004A075B07E0F64BC1D3018D919C911197B2
:1012E000820F931F8D939C93F80140815181473069
:1012F0005105D9F4AB81BC818D919C911197AC01C2
:101300004F5F5F4F4D935C93EF85F889E80FF91FAE
:10131000208FF70180819181019791838083892BB0
:1013200009F0ABCF88E090E02FC04115510521F5C1
:101330002F3F310569F481E090E0F80191838083CB
:10134000AD85BE852D923D924D925C92139795CFBF
:101350000E94A810DC01CB0188199909AA09BB09D0
:1013600089389341A105B10508F487CFEF85F88945
:10137000EA57FB4F1082FBC041305105B1F42E3FBC
:10138000310531F482E090E0D8018D939C9375CFC4
:10139000F80111821082AF81B8858C9181116DCFD7
:1013A0008F8598890E94100768CF4230510569F4F3
:1013B000F70131832083AB81BC811D921C9283E0B5
:1013C00090E0F801918380832EC04330510561F491
:1013D000322F2227F70180819181280F391F318315
:1013E000208384E090E0D0CF4430510581F460E068
:1013F00071E00E94C0128F3F910531F485E090E0CA
:10140000F8019183808339CF1182108236CF453025
:10141000510569F4E981FA8131832083E6E0F0E047
:10142000D801ED93FC93D3012D933C9326CF463006
:10143000510599F4322F2227E981FA818081918127
:10144000280F391F31832083E7E0F0E0D801ED93C6
:10145000FC93D7018D919C9162CF4830510509F0E2
:101460000CCFF8011182108260E071E00E94C0127E
:101470008F3F910509F001CFA981BA818D919C918F
:101480000097C9F48F8598890E9410078F859889E5
:101490000E943B07EF85F889E957FB4F80829182D4
:1014A000A282B382ED81FE8180829182A282B38288
:1014B0008FEF9FEF61C08A30910531F4B6018F85BF
:1014C00098890E942208D9CE8630910551F4B60140
:1014D00089859A850E944E0581E0AB85BC858C93F9
:1014E000CCCE8B30910521F4EF81F8851082C5CEEA
:1014F000FC01EF53FE4FEE0FFF1F2F853889E20FDF
:10150000F31F80819181009709F4B7CEDC01ED9142
:10151000FC910190F081E02DB6011995AECEEF85DA
:10152000F889EA57FB4F8081882321F10F851889BC
:1015300009571B4FF80180819181A281B381A501D8
:101540009401281B390B4A0B5B0BDA01C901853C5E
:101550009940A105B10570F08F8598890E94100708
:10156000D8018D929D92AD92BC92139703C08EEFDD
:101570009FEF02C080E090E06096E2E10C941D13C2
:10158000CF93DF9380E092E09093C3038093C203F4
:10159000E6EBF3E086819781EC01A881B981648153
:1015A0007581ED91FC9140EC53E0199584EC93E04A
:1015B0000E94BF0868EE73E080E090E00E94D910BE
:1015C000DF91CF9108958FE993E09093C5038093C5
:1015D000C4038CED98E09093C7038093C60380E02A
:1015E00091EEA0E0B0E08093C8039093C903A0936C
:1015F000CA03B093CB0310924A0887E893E0909314
:1016000059088093580810925A0810925B0810925B
:101610005C0810925D0810926308109262081092A4
:10162000640810926508109266081092670810927C
:101630006D0810926C0810926E0810926F0810924C
:101640007008109271081092750810927408ECEDF1
:10165000F7E01192119288E0EE30F807D1F7EEE052
:10166000F8E01192119288E0E034F807D1F7ECED40
:10167000F3E0119285E0EC3DF807D9F7ECEDF5E0E9
:10168000119287E0EC3DF807D9F71092D803109239
:10169000D9031092DA031092DB0383E993E090936D
:1016A000C1038093C0038AE393E09093C3038093C4
:1016B000C2038BE393E09093B7038093B60380EC6F
:1016C00093E09093B9038093B8031092BF031092F4
:1016D000BE030895A0E0B0E0E0E7FBE00C940B133C
:1016E0008C01EB01688179818A819B8120E03AEC51
:1016F0004AE95BE30E94D412F801C080D180E28005
:10170000F380C20ED31EE41EF51EC082D182E28297
:10171000F382688379838A839B83CDB7DEB7E8E061
:101720000C942713FC0124853585F901E05CFF4FFB
:1017300080819181329620813181821B930B8F733E
:1017400099270895DC011C96ED91FC911D97DF010E
:10175000A05CBF4F2D913C91119712968D919C9159
:1017600011972817390739F08D919C91E80FF91FCF
:10177000808190E008958FEF9FEF0895FC01A4858C
:10178000B585FD01E05CFF4F20813181329680817B
:1017900091812817390779F080819181A80FB91FAD
:1017A0008C91208131812F5F3F4F2F7333273183FD
:1017B000208390E008958FEF9FEF0895FC0181A1B1
:1017C000882329F0A489B5898C9186FFFBCF11A2CB
:1017D00008950F931F93CF93DF93FC01A685B785E0
:1017E0008D01005C1F4FE8018881998101968F73FC
:1017F0009927AD014E5B5F4FEA012881398182173D
:101800009307D1F3E80128813981A20FB31F6C93AC
:10181000A685B785A05CBF4F11969C938E93A68931
:10182000B7892C9181E090E0078C02C0880F991F46
:101830000A94E2F7822B8C9381E081A30488F589D6
:10184000E02D80818064808381E090E0DF91CF9102
:101850001F910F910895FB01E05CFF4F20813181C2
:101860002F5F3F4F2F733327DB01AE5BBF4F4D918F
:101870005C912417350741F040815181DB01A40FB1
:10188000B51F8C9331832083089508951F920F9282
:101890000FB60F9211240BB60F922F933F934F93D5
:1018A0005F936F937F938F939F93AF93BF93EF93C8
:1018B000FF938091C00082FD07C08091C6006AED51
:1018C0007AE00E942B0C02C08091C600FF91EF913C
:1018D000BF91AF919F918F917F916F915F914F9148
:1018E0003F912F910F900BBE0F900FBE0F901F9046
:1018F000189508951F920F920FB60F9211240BB6F0
:101900000F922F933F934F935F936F937F938F9398
:101910009F93AF93BF93EF93FF938091C80082FD95
:1019200007C08091CE0062E57AE00E942B0C02C0D5
:101930008091CE00FF91EF91BF91AF919F918F91D8
:101940007F916F915F914F913F912F910F900BBEBF
:101950000F900FBE0F901F90189508951F920F9231
:101960000FB60F9211240BB60F922F933F934F9304
:101970005F936F937F938F939F93AF93BF93EF93F7
:10198000FF938091D00082FD07C08091D6006AEC61
:1019900079E00E942B0C02C08091D600FF91EF915C
:1019A000BF91AF919F918F917F916F915F914F9177
:1019B0003F912F910F900BBE0F900FBE0F901F9075
:1019C000189508951F920F920FB60F9211240BB61F
:1019D0000F922F933F934F935F936F937F938F93C8
:1019E0009F93AF93BF93EF93FF938091300182FD5C
:1019F00007C08091360162E479E00E942B0C02C09E
:101A000080913601FF91EF91BF91AF919F918F919E
:101A10007F916F915F914F913F912F910F900BBEEE
:101A20000F900FBE0F901F9018958CED98E00E94BC
:101A3000920B892B11F00E94450C8AEB98E00E94D2
:101A4000920B892B11F00E94790C88E998E00E9492
:101A5000920B892B11F00E94AD0C86E798E00E9452
:101A6000920B892B11F00E94E10C08951F920F92A6
:101A70000FB60F9211240BB60F922F933F938F93B3
:101A80009F93EF93FF932091D60A3091D70A8091CC
:101A9000D80A9091D90A2817390731F48091C100EA
:101AA0008F7D8093C10014C0E091D80AF091D90ACB
:101AB000EA56F54F20818091D80A9091D90A019673
:101AC0008F7399279093D90A8093D80A2093C600E0
:101AD000FF91EF919F918F913F912F910F900BBEAE
:101AE0000F900FBE0F901F9018951F920F920FB678
:101AF0000F9211240BB60F922F933F938F939F93C6
:101B0000EF93FF9320914E0A30914F0A8091500A33
:101B10009091510A2817390731F48091C9008F7DBF
:101B20008093C90014C0E091500AF091510AE25F1D
:101B3000F54F20818091500A9091510A01968F7340
:101B400099279093510A8093500A2093CE00FF91D9
:101B5000EF919F918F913F912F910F900BBE0F901E
:101B60000FBE0F901F9018951F920F920FB60F92F5
:101B700011240BB60F922F933F938F939F93EF9364
:101B8000FF932091C6093091C7098091C8099091AF
:101B9000C9092817390731F48091D1008F7D8093CE
:101BA000D10014C0E091C809F091C909EA57F64F75
:101BB00020818091C8099091C90901968F73992756
:101BC0009093C9098093C8092093D600FF91EF91A3
:101BD0009F918F913F912F910F900BBE0F900FBE51
:101BE0000F901F9018951F920F920FB60F9211240D
:101BF0000BB60F922F933F938F939F93EF93FF9387
:101C000020913E0930913F0980914009909141090E
:101C10002817390731F4809131018F7D809331018C
:101C200014C0E0914009F0914109E250F74F208142
:101C3000809140099091410901968F739927909363
:101C400041098093400920933601FF91EF919F91C4
:101C50008F913F912F910F900BBE0F900FBE0F9061
:101C60001F901895A0E0B0E0E8E3FEE00C940B13A1
:101C7000EC016A017B014115514E6105710511F1BD
:101C8000EC89FD8981E090E008A002C0880F991FCF
:101C90000A94E2F7808360E079E08DE390E0A701A9
:101CA00096010E94D41289019A010150110921095B
:101CB000310936952795179507959801011580E10B
:101CC0001807A8F0EC89FD89108260E874E88EE1BD
:101CD00090E0A70196010E94D412DA01C901019790
:101CE000A109B109B695A795979587959C01E889B3
:101CF000F9893083EA89FB89208319A2EE89FF895B
:101D0000408181E090E09C010C8C02C0220F331FC7
:101D10000A94E2F7242B2083EE89FF8940819C01FD
:101D20000D8C02C0220F331F0A94E2F7242B20836C
:101D3000EE89FF8940819C010E8C02C0220F331F67
:101D40000A94E2F7242B2083EE89FF8920810F8CEF
:101D500002C0880F991F0A94E2F78095822380833E
:101D6000CDB7DEB7E8E00C942713CF92DF92EF9265
:101D7000FF92ECEDF8E01382128288EEC82E83E029
:101D8000D82EE12CF12CC482D582E682F78269EA52
:101D900073E0718360838AED9AE09587848786E992
:101DA0009AE09787868785EC90E0918B808B84EC16
:101DB00090E0938B828B80EC90E0958B848B81EC10
:101DC00090E0978B868B82EC90E0918F808F86ECF1
:101DD00090E0938F828F44E0448F33E0358F27E08B
:101DE000268F95E0978F81E080A3EAEBF8E01382DD
:101DF0001282C482D582E682F78271836083A2E573
:101E0000BAE0B587A487AEE0BAE0B787A687ADECA5
:101E1000B0E0B18BA08BACECB0E0B38BA28BA8ECA4
:101E2000B0E0B58BA48BA9ECB0E0B78BA68BAAEC85
:101E3000B0E0B18FA08FAEECB0E0B38FA28F448F33
:101E4000358F268F978F80A3E8E9F8E013821282FE
:101E5000C482D582E682F78271836083AAECB9E0FE
:101E6000B587A487A6E8B9E0B787A687A5EDB0E057
:101E7000B18BA08BA4EDB0E0B38BA28BA0EDB0E052
:101E8000B58BA48BA1EDB0E0B78BA68BA2EDB0E033
:101E9000B18FA08FA6EDB0E0B38FA28F448F358FA6
:101EA000268F978F80A3E6E7F8E013821282C48220
:101EB000D582E682F7827183608362E479E0758778
:101EC00064876EEF78E07787668765E371E0718BF2
:101ED000608B64E371E0738B628B60E371E0758B00
:101EE000648B61E371E0778B668B62E371E0718FE5
:101EF000608F66E371E0738F628F448F358F268F1A
:101F0000978F80A3FF90EF90DF90CF9008950E946D
:101F1000FF100E941E02C5E1DDE00E94C00A20976A
:101F2000E1F30E94150DF9CFA0E0B0E0EAE9FFE08F
:101F30000C940513EC01009721F4CB010E9483114E
:101F4000B8C0FC01E60FF71F9C0122503109E217CF
:101F5000F30708F4ACC0D9010D911C911197061735
:101F60001707B0F00530110508F49FC0C8010497A9
:101F70008617970708F499C002501109061B170B22
:101F8000019311936D937C93CF010E9418128DC021
:101F90005B01A01AB10A4C01800E911EA091290B81
:101FA000B0912A0B40E050E0E12CF12C109709F49D
:101FB0004AC0A815B905D1F56D907C9011976301C1
:101FC00082E0C80ED11CCA14DB0480F1A3014A19B7
:101FD0005B096A0182E0C80ED11C1296BC90129770
:101FE0001396AC91B5E0CB16D10440F0B282A38336
:101FF00051834083D9016D937C930AC00E5F1F4FBC
:10200000C301800F911FF90191838083EB2DFA2F7B
:10201000E114F10431F0D7011396FC93EE9312977B
:1020200044C0F0932A0BE093290B3FC08D919C9103
:1020300011974817590708F4AC017D0112960D90CD
:10204000BC91A02DB3CF8091270B9091280B8815C0
:102050009905E1F446175707C8F480910D02909155
:102060000E02009741F48DB79EB740911102509136
:102070001202841B950BE817F907C8F4F093280B9C
:10208000E093270BF901718360830FC0CB010E949D
:1020900083117C01009759F0A801BE010E946313CF
:1020A000CE010E941812C70104C0CE0102C080E018
:1020B00090E0CDB7DEB7EEE00C9421131F920F92A3
:1020C0000FB60F9211242F933F938F939F93AF934B
:1020D000BF9380911F0B9091200BA091210BB09189
:1020E000220B30911E0B23E0230F2D3720F4019695
:1020F000A11DB11D05C026E8230F0296A11DB11D2B
:1021000020931E0B80931F0B9093200BA093210B09
:10211000B093220B8091230B9091240BA091250B5F
:10212000B091260B0196A11DB11D8093230B9093B6
:10213000240BA093250BB093260BBF91AF919F91D9
:102140008F913F912F910F900FBE0F901F90189578
:102150002FB7F89460911F0B7091200B8091210B89
:102160009091220B2FBF08953FB7F8948091230BD5
:102170009091240BA091250BB091260B26B5A89B1E
:1021800005C02F3F19F00196A11DB11D3FBFBA2F09
:10219000A92F982F8827820F911DA11DB11DBC0169
:1021A000CD0142E0660F771F881F991F4A95D1F72E
:1021B0000895CF92DF92EF92FF92CF93DF936B015E
:1021C0007C010E94B410EB01C114D104E104F104BC
:1021D00079F00E94B4106C1B7D0B683E7340A0F335
:1021E00081E0C81AD108E108F108C851DC4FECCFF2
:1021F000DF91CF91FF90EF90DF90CF90089578948A
:1022000084B5826084BD84B5816084BD85B58260FB
:1022100085BD85B5816085BDEEE6F0E08081816099
:102220008083E1E8F0E01082808182608083808199
:1022300081608083E0E8F0E0808181608083E1EB71
:10224000F0E0808184608083E0EBF0E08081816059
:102250008083E1E9F0E08081826080838081816019
:102260008083E0E9F0E0808181608083E1EAF0E052
:10227000808182608083808181608083E0EAF0E0F9
:10228000808181608083E1E2F1E0808182608083EF
:10229000808181608083E0E2F1E0808181608083E1
:1022A000EAE7F0E0808184608083808182608083BF
:1022B0008081816080838081806880831092C100EA
:1022C0000895A0E0B0E0E7E6F1E10C940B136C0197
:1022D000EB017B01E40EF51E00E010E0CE15DF05FA
:1022E00061F06991D601ED91FC910190F081E02DB2
:1022F000C6011995080F191FF1CFC801CDB7DEB778
:10230000E8E00C942713CF93DF938230910510F40B
:1023100082E090E0E091290BF0912A0B20E030E080
:10232000C0E0D0E0309711F1408151814817590742
:10233000C0F04817590761F482819381209719F002
:102340009B838A832BC090932A0B8093290B26C0F2
:102350002115310519F04217530718F49A01BE01EF
:10236000DF01EF010280F381E02DDCCF2115310583
:1023700009F1281B390B2430310590F412968D9108
:102380009C9113976115710521F0FB019383828362
:1023900004C090932A0B8093290BFD01329644C010
:1023A000FD01E20FF31F81939193225031092D9388
:1023B0003C933AC02091270B3091280B232B41F4FA
:1023C00020910F02309110023093280B2093270B9D
:1023D00020910D0230910E022115310541F42DB7E7
:1023E0003EB74091110250911202241B350BE0912F
:1023F000270BF091280BE217F307A0F42E1B3F0BDD
:102400002817390778F0AC014E5F5F4F2417350766
:1024100048F04E0F5F1F5093280B4093270B81937A
:10242000919302C0E0E0F0E0CF01DF91CF910895F9
:102430000F931F93CF93DF93009709F48CC0FC0197
:102440003297138212820091290B10912A0B0115E9
:10245000110581F420813181820F931F2091270B78
:102460003091280B2817390779F5F093280BE09362
:10247000270B71C0D80140E050E0AE17BF0750F401
:1024800012962D913C911397AD012115310509F15B
:10249000D901F3CF9D01DA013383228360817181F9
:1024A000860F971F8217930769F4EC012881398101
:1024B000260F371F2E5F3F4F318320838A819B81F8
:1024C00093838283452B29F4F0932A0BE093290B05
:1024D00042C01396FC93EE931297ED0149915991E6
:1024E0009E01240F351FE217F30771F4808191815B
:1024F000840F951F029611969C938E9382819381EF
:1025000013969C938E931297E0E0F0E0D801129618
:102510008D919C911397009719F0F8018C01F6CFDB
:102520008D919C9198012E5F3F4F820F931F2091B8
:10253000270B3091280B2817390769F4309729F4B5
:1025400010922A0B1092290B02C013821282109350
:10255000280B0093270BDF91CF911F910F910895C6
:10256000DB018F939F930E94F612BF91AF91A29FC0
:10257000800D911DA39F900DB29F900D1124089581
:1025800097FB072E16F4009407D077FD09D00E9420
:10259000381307FC05D03EF4909581959F4F089520
:1025A000709561957F4F0895A1E21A2EAA1BBB1B5F
:1025B000FD010DC0AA1FBB1FEE1FFF1FA217B3070F
:1025C000E407F50720F0A21BB30BE40BF50B661F25
:1025D000771F881F991F1A9469F7609570958095E9
:1025E00090959B01AC01BD01CF0108950E94541349
:1025F000A59F900DB49F900DA49F800D911D112457
:1026000008952F923F924F925F926F927F928F9296
:102610009F92AF92BF92CF92DF92EF92FF920F9371
:102620001F93CF93DF93CDB7DEB7CA1BDB0B0FB67B
:10263000F894DEBF0FBECDBF19942A883988488828
:102640005F846E847D848C849B84AA84B984C884CE
:10265000DF80EE80FD800C811B81AA81B981CE0FC5
:10266000D11D0FB6F894DEBF0FBECDBFED010895AA
:10267000AA1BBB1B51E107C0AA1FBB1FA617B707A8
:1026800010F0A61BB70B881F991F5A95A9F78095C4
:102690009095BC01CD010895EE0FFF1F881F8BBFE1
:1026A0000790F691E02D1994A29FB001B39FC0014D
:1026B000A39F700D811D1124911DB29F700D811D6E
:1026C0001124911D0895FB01DC0102C001900D92BF
:0C26D00041505040D8F70895F894FFCF17
:1026DC0068656C6C6F2C20776F726C640000002B3B
:1026EC000B80007374645F6D7367732F54696D6531
:1026FC0000636437313636633734633535326333D0
:10270C0031316662636332666535613762633238D4
:10271C003900726F7373657269616C5F6D73677387
:10272C002F546F706963496E666F00306164353188
:10273C00663838666334343839326638633130364B
:10274C00383430373736343630303500726F737377
:10275C00657269616C5F6D7367732F4C6F670031C5
:10276C003161626437333163323539333332363168
:10277C006364363138336264313264363239350051
:10278C0039663065393862646136353938313938F3
:10279C00366464663533616661376134306534396B
:1027AC00007374645F6D7367732F537472696E6713
:1027BC0000393932636538613136383763656338CF
:1027CC00633862643838336563373363613431643A
:1027DC0031004D6573736167652066726F6D20649F
:1027EC0065766963652064726F707065643A206DFC
:1027FC00657373616765206C6172676572207468BC
:10280C00616E206275666665722E00636861747411
:10281C00657200726F7373657269616C5F6D73675B
:10282C00732F52657175657374506172616D000020
:10283C00000000010125016B016E01000000009BEE
:10284C0003830471017401000000007103420477DA
:10285C00017A0100000000A5024E057D01800100F7
:10286C000000007C02D40683018601000000008E6B
:10287C0001BF08890100000000E90B6111920BBE39
:06288C000BA20BDE0B00A5
:00000001FF
